:1000000012C019C018C017C016C015C014C013C044
:1000100012C011C010C00FC00EC00DC00CC00BC06C
:100020000AC009C008C011241FBECFE5D4E0DEBF5E
:10003000CDBF02D042C0E4CF889A899A8A9A8B9A1F
:100040008C9A8D9A8E9A8F9A90989198929893986C
:100050009498959896989798919A8DE399E401973A
:10006000F1F700C000009198909A8DE399E4019710
:10007000F1F700C000009098959A8DE399E40197FC
:10008000F1F700C000009598969A8DE399E40197E6
:10009000F1F700C000009698979A8DE399E40197D4
:1000A000F1F700C000009798929A8DE399E40197C8
:0E00B000F1F700C000009298CFCFF894FFCF78
:00000001FF
